{
  "contractName": "Gamble",
  "abi": [
    {
      "inputs": [
        {
          "internalType": "contract ILighthouse",
          "name": "_myLighthouse",
          "type": "address"
        }
      ],
      "payable": false,
      "stateMutability": "nonpayable",
      "type": "constructor"
    },
    {
      "constant": true,
      "inputs": [
        {
          "internalType": "uint256",
          "name": "",
          "type": "uint256"
        }
      ],
      "name": "accounts",
      "outputs": [
        {
          "internalType": "address",
          "name": "",
          "type": "address"
        }
      ],
      "payable": false,
      "stateMutability": "view",
      "type": "function"
    },
    {
      "constant": true,
      "inputs": [
        {
          "internalType": "address",
          "name": "",
          "type": "address"
        }
      ],
      "name": "balances",
      "outputs": [
        {
          "internalType": "uint256",
          "name": "",
          "type": "uint256"
        }
      ],
      "payable": false,
      "stateMutability": "view",
      "type": "function"
    },
    {
      "constant": true,
      "inputs": [
        {
          "internalType": "address",
          "name": "",
          "type": "address"
        }
      ],
      "name": "chosenNumber",
      "outputs": [
        {
          "internalType": "uint256",
          "name": "",
          "type": "uint256"
        }
      ],
      "payable": false,
      "stateMutability": "view",
      "type": "function"
    },
    {
      "constant": true,
      "inputs": [],
      "name": "myLighthouse",
      "outputs": [
        {
          "internalType": "contract ILighthouse",
          "name": "",
          "type": "address"
        }
      ],
      "payable": false,
      "stateMutability": "view",
      "type": "function"
    },
    {
      "constant": true,
      "inputs": [],
      "name": "numAccounts",
      "outputs": [
        {
          "internalType": "uint256",
          "name": "",
          "type": "uint256"
        }
      ],
      "payable": false,
      "stateMutability": "view",
      "type": "function"
    },
    {
      "constant": true,
      "inputs": [
        {
          "internalType": "address",
          "name": "",
          "type": "address"
        }
      ],
      "name": "toBet",
      "outputs": [
        {
          "internalType": "uint256",
          "name": "",
          "type": "uint256"
        }
      ],
      "payable": false,
      "stateMutability": "view",
      "type": "function"
    },
    {
      "constant": false,
      "inputs": [
        {
          "internalType": "address",
          "name": "msgSender",
          "type": "address"
        }
      ],
      "name": "deposit",
      "outputs": [],
      "payable": true,
      "stateMutability": "payable",
      "type": "function"
    },
    {
      "constant": false,
      "inputs": [
        {
          "internalType": "address payable",
          "name": "msgSender",
          "type": "address"
        }
      ],
      "name": "withdraw",
      "outputs": [],
      "payable": false,
      "stateMutability": "nonpayable",
      "type": "function"
    },
    {
      "constant": true,
      "inputs": [],
      "name": "checkAccountLength",
      "outputs": [
        {
          "internalType": "uint256",
          "name": "",
          "type": "uint256"
        }
      ],
      "payable": false,
      "stateMutability": "view",
      "type": "function"
    },
    {
      "constant": true,
      "inputs": [],
      "name": "checkNumAccounts",
      "outputs": [
        {
          "internalType": "uint256",
          "name": "",
          "type": "uint256"
        }
      ],
      "payable": false,
      "stateMutability": "view",
      "type": "function"
    },
    {
      "constant": true,
      "inputs": [
        {
          "internalType": "uint256",
          "name": "index",
          "type": "uint256"
        }
      ],
      "name": "checkAccounts",
      "outputs": [
        {
          "internalType": "address",
          "name": "",
          "type": "address"
        }
      ],
      "payable": false,
      "stateMutability": "view",
      "type": "function"
    },
    {
      "constant": true,
      "inputs": [
        {
          "internalType": "address",
          "name": "msgSender",
          "type": "address"
        }
      ],
      "name": "checkBalance",
      "outputs": [
        {
          "internalType": "uint256",
          "name": "",
          "type": "uint256"
        }
      ],
      "payable": false,
      "stateMutability": "view",
      "type": "function"
    },
    {
      "constant": true,
      "inputs": [
        {
          "internalType": "address",
          "name": "msgSender",
          "type": "address"
        }
      ],
      "name": "checkBet",
      "outputs": [
        {
          "internalType": "uint256",
          "name": "",
          "type": "uint256"
        }
      ],
      "payable": false,
      "stateMutability": "view",
      "type": "function"
    },
    {
      "constant": true,
      "inputs": [
        {
          "internalType": "address",
          "name": "msgSender",
          "type": "address"
        }
      ],
      "name": "checkNumber",
      "outputs": [
        {
          "internalType": "uint256",
          "name": "",
          "type": "uint256"
        }
      ],
      "payable": false,
      "stateMutability": "view",
      "type": "function"
    },
    {
      "constant": false,
      "inputs": [
        {
          "internalType": "address",
          "name": "msgSender",
          "type": "address"
        },
        {
          "internalType": "uint256",
          "name": "money",
          "type": "uint256"
        },
        {
          "internalType": "uint256",
          "name": "number",
          "type": "uint256"
        }
      ],
      "name": "gamble",
      "outputs": [],
      "payable": false,
      "stateMutability": "nonpayable",
      "type": "function"
    },
    {
      "constant": false,
      "inputs": [],
      "name": "diceRoll",
      "outputs": [],
      "payable": false,
      "stateMutability": "nonpayable",
      "type": "function"
    }
  ],
  "bytecode": "0x6080604052600060155534801561001557600080fd5b506040516110463803806110468339818101604052602081101561003857600080fd5b8101908080519060200190929190505050806000806101000a81548173ffffffffffffffffffffffffffffffffffffffff021916908373ffffffffffffffffffffffffffffffffffffffff16021790555050610fad806100996000396000f3fe6080604052600436106100f35760003560e01c80638ce25a931161008a578063f340fa0111610059578063f340fa0114610536578063f41a804f1461057a578063f8c4b9d6146105a5578063fd793cd81461060a576100f3565b80638ce25a93146103c6578063b9e108c4146103f1578063f1f7643814610456578063f2a40db8146104bb576100f3565b8063524704ac116100c6578063524704ac1461028e5780635f515226146102e557806370bddc801461034a57806388438c0c14610361576100f3565b80630c5de051146100f857806312b905571461015d57806327e235e3146101d857806351cff8d91461023d575b600080fd5b34801561010457600080fd5b506101476004803603602081101561011b57600080fd5b81019080803573ffffffffffffffffffffffffffffffffffffffff169060200190929190505050610635565b6040518082815260200191505060405180910390f35b34801561016957600080fd5b506101966004803603602081101561018057600080fd5b810190808035906020019092919050505061067e565b604051808273ffffffffffffffffffffffffffffffffffffffff1673ffffffffffffffffffffffffffffffffffffffff16815260200191505060405180910390f35b3480156101e457600080fd5b50610227600480360360208110156101fb57600080fd5b81019080803573ffffffffffffffffffffffffffffffffffffffff16906020019092919050505061070f565b6040518082815260200191505060405180910390f35b34801561024957600080fd5b5061028c6004803603602081101561026057600080fd5b81019080803573ffffffffffffffffffffffffffffffffffffffff169060200190929190505050610727565b005b34801561029a57600080fd5b506102a36108a5565b604051808273ffffffffffffffffffffffffffffffffffffffff1673ffffffffffffffffffffffffffffffffffffffff16815260200191505060405180910390f35b3480156102f157600080fd5b506103346004803603602081101561030857600080fd5b81019080803573ffffffffffffffffffffffffffffffffffffffff1690602001909291905050506108ca565b6040518082815260200191505060405180910390f35b34801561035657600080fd5b5061035f610913565b005b34801561036d57600080fd5b506103c46004803603606081101561038457600080fd5b81019080803573ffffffffffffffffffffffffffffffffffffffff1690602001909291908035906020019092919080359060200190929190505050610c4e565b005b3480156103d257600080fd5b506103db610d31565b6040518082815260200191505060405180910390f35b3480156103fd57600080fd5b506104406004803603602081101561041457600080fd5b81019080803573ffffffffffffffffffffffffffffffffffffffff169060200190929190505050610d37565b6040518082815260200191505060405180910390f35b34801561046257600080fd5b506104a56004803603602081101561047957600080fd5b81019080803573ffffffffffffffffffffffffffffffffffffffff169060200190929190505050610d4f565b6040518082815260200191505060405180910390f35b3480156104c757600080fd5b506104f4600480360360208110156104de57600080fd5b8101908080359060200190929190505050610d98565b604051808273ffffffffffffffffffffffffffffffffffffffff1673ffffffffffffffffffffffffffffffffffffffff16815260200191505060405180910390f35b6105786004803603602081101561054c57600080fd5b81019080803573ffffffffffffffffffffffffffffffffffffffff169060200190929190505050610dcb565b005b34801561058657600080fd5b5061058f610f19565b6040518082815260200191505060405180910390f35b3480156105b157600080fd5b506105f4600480360360208110156105c857600080fd5b81019080803573ffffffffffffffffffffffffffffffffffffffff169060200190929190505050610f22565b6040518082815260200191505060405180910390f35b34801561061657600080fd5b5061061f610f3a565b6040518082815260200191505060405180910390f35b6000601760008373ffffffffffffffffffffffffffffffffffffffff1673ffffffffffffffffffffffffffffffffffffffff168152602001908152602001600020549050919050565b6000601482106106d9576040517f08c379a0000000000000000000000000000000000000000000000000000000008152600401808060200182810382526034815260200180610f456034913960400191505060405180910390fd5b600182601481106106e657fe5b0160009054906101000a900473ffffffffffffffffffffffffffffffffffffffff169050919050565b60166020528060005260406000206000915090505481565b6000601660008373ffffffffffffffffffffffffffffffffffffffff1673ffffffffffffffffffffffffffffffffffffffff1681526020019081526020016000205490506000601660008473ffffffffffffffffffffffffffffffffffffffff1673ffffffffffffffffffffffffffffffffffffffff16815260200190815260200160002081905550600080905060608373ffffffffffffffffffffffffffffffffffffffff1683614e2090604051806000019050600060405180830381858888f193505050503d806000811461081a576040519150601f19603f3d011682016040523d82523d6000602084013e61081f565b606091505b508092508193505050600191508161089f576040517f08c379a000000000000000000000000000000000000000000000000000000000815260040180806020018281038252600f8152602001807f5472616e73666572206661696c6564000000000000000000000000000000000081525060200191505060405180910390fd5b50505050565b6000809054906101000a900473ffffffffffffffffffffffffffffffffffffffff1681565b6000601660008373ffffffffffffffffffffffffffffffffffffffff1673ffffffffffffffffffffffffffffffffffffffff168152602001908152602001600020549050919050565b6000806000809054906101000a900473ffffffffffffffffffffffffffffffffffffffff1673ffffffffffffffffffffffffffffffffffffffff1663420b81f66040518163ffffffff1660e01b8152600401604080518083038186803b15801561097c57600080fd5b505afa158015610990573d6000803e3d6000fd5b505050506040513d60408110156109a657600080fd5b810190808051906020019092919080519060200190929190505050816fffffffffffffffffffffffffffffffff169150809250819350505060008090505b601554811015610c495760006017600060018460148110610a0157fe5b0160009054906101000a900473ffffffffffffffffffffffffffffffffffffffff1673ffffffffffffffffffffffffffffffffffffffff1673ffffffffffffffffffffffffffffffffffffffff1681526020019081526020016000205414158015610ad85750826018600060018460148110610a7957fe5b0160009054906101000a900473ffffffffffffffffffffffffffffffffffffffff1673ffffffffffffffffffffffffffffffffffffffff1673ffffffffffffffffffffffffffffffffffffffff16815260200190815260200160002054145b15610bc95760066017600060018460148110610af057fe5b0160009054906101000a900473ffffffffffffffffffffffffffffffffffffffff1673ffffffffffffffffffffffffffffffffffffffff1673ffffffffffffffffffffffffffffffffffffffff16815260200190815260200160002054026016600060018460148110610b5f57fe5b0160009054906101000a900473ffffffffffffffffffffffffffffffffffffffff1673ffffffffffffffffffffffffffffffffffffffff1673ffffffffffffffffffffffffffffffffffffffff168152602001908152602001600020600082825401925050819055505b60006017600060018460148110610bdc57fe5b0160009054906101000a900473ffffffffffffffffffffffffffffffffffffffff1673ffffffffffffffffffffffffffffffffffffffff1673ffffffffffffffffffffffffffffffffffffffff1681526020019081526020016000208190555080806001019150506109e4565b505050565b81601660008573ffffffffffffffffffffffffffffffffffffffff1673ffffffffffffffffffffffffffffffffffffffff1681526020019081526020016000206000828254039250508190555081601760008573ffffffffffffffffffffffffffffffffffffffff1673ffffffffffffffffffffffffffffffffffffffff1681526020019081526020016000206000828254019250508190555080601860008573ffffffffffffffffffffffffffffffffffffffff1673ffffffffffffffffffffffffffffffffffffffff16815260200190815260200160002081905550505050565b60155481565b60176020528060005260406000206000915090505481565b6000601860008373ffffffffffffffffffffffffffffffffffffffff1673ffffffffffffffffffffffffffffffffffffffff168152602001908152602001600020549050919050565b60018160148110610da557fe5b016000915054906101000a900473ffffffffffffffffffffffffffffffffffffffff1681565b600080905060008090505b601554811015610e58578273ffffffffffffffffffffffffffffffffffffffff1660018260148110610e0457fe5b0160009054906101000a900473ffffffffffffffffffffffffffffffffffffffff1673ffffffffffffffffffffffffffffffffffffffff161415610e4b5760019150610e58565b8080600101915050610dd6565b50600015158115151415610ec85781600160155460148110610e7657fe5b0160006101000a81548173ffffffffffffffffffffffffffffffffffffffff021916908373ffffffffffffffffffffffffffffffffffffffff1602179055506015600081548092919060010191905055505b34601660008473ffffffffffffffffffffffffffffffffffffffff1673ffffffffffffffffffffffffffffffffffffffff168152602001908152602001600020600082825401925050819055505050565b60006014905090565b60186020528060005260406000206000915090505481565b600060155490509056fe4e6f206d6f7265207468616e203230206163636f756e74732063616e206265207265676973746572656420617420612074696d65a265627a7a72315820f1923521c4b795ce8f9fad3eff56ad5e89502bd99c230783b5b0d02da5d6410564736f6c63430005100032",
  "source": "pragma solidity ^0.5.0;\n\nimport './Ilighthouse.sol';\n\ncontract Gamble {\n\n    ILighthouse public myLighthouse;\n\n    address[20] public accounts;             // Array of users registered\n    uint public numAccounts = 0;             // Should be <= 19, this holds number of registered users\n\n    mapping(address => uint) public balances;     // Stores users deposited ether in a wallet\n    mapping(address => uint) public toBet;        // Holds ether users have decided to gamble on an upcoming dice roll\n    mapping(address => uint) public chosenNumber; // Holds the users chosen number to bet on in an upcoming dice roll\n\n    constructor(ILighthouse _myLighthouse) public {\n        myLighthouse = _myLighthouse;\n    }\n\n// Pass in sender address manually because truffle proxy contracts interfer with msg.sender\n    function deposit(address msgSender) external payable {\n\n      bool exists = false;\n      for(uint i = 0; i < numAccounts; i++){\n        if( accounts[i] == msgSender){\n          exists = true;\n          break;\n        }\n      }\n\n      if(exists == false){\n        accounts[numAccounts] = msgSender;\n        numAccounts++;\n      }\n\n      balances[msgSender] += msg.value;\n    }\n\n// Allows users to withdraw all their ether\n    function withdraw(address payable msgSender) public {\n      uint amount = balances[msgSender];\n      balances[msgSender] = 0;\n\n      bool ok = false;\n      bytes memory mem;\n      (ok, mem) = msgSender.call.value(amount).gas(20000)(\"\");    // fallback function logs withdraw in a storage write, requires 20000 gas\n      require(ok = true, \"Transfer failed\");\n    }\n\n\n// Functions to display the internal state\n    function checkAccountLength() public view returns(uint) {\n      return accounts.length;\n    }\n\n    function checkNumAccounts() public view returns(uint) {\n      return numAccounts;\n    }\n\n    function checkAccounts(uint index) public view returns(address) {\n      require(index < 20, \"No more than 20 accounts can be registered at a time\");\n      return accounts[index];\n    }\n\n    function checkBalance(address msgSender) public view returns(uint) {\n      return balances[msgSender];\n    }\n\n    function checkBet(address msgSender) public view returns(uint) {\n      return toBet[msgSender];\n    }\n\n    function checkNumber(address msgSender) public view returns(uint) {\n      return chosenNumber[msgSender];\n    }\n\n// User places a bet on a number they think will win the dice roll\n    function gamble(address msgSender, uint money, uint number) public {\n      balances[msgSender] -= money;\n      toBet[msgSender] += money;\n      chosenNumber[msgSender] = number;\n    }\n\n// Rolls the dice for all players who bet on this round, giving a 6x return if they win\n    function diceRoll() public {\n\n      uint winningNumber;\n      bool ok;\n      (winningNumber, ok) = myLighthouse.peekData();\n\n      for(uint i = 0; i < numAccounts; i++){\n        if( toBet[accounts[i]] != 0 && chosenNumber[accounts[i]] == winningNumber){\n          balances[accounts[i]] += toBet[accounts[i]] * 6;\n        }\n        toBet[accounts[i]] = 0;\n      }\n    }\n\n}\n",
  "sourcePath": "/Users/abl/Desktop/consensys-academy/random-number-gen/contracts/Gamble.sol",
  "compiler": {
    "name": "solc",
    "version": "0.5.16+commit.9c3226ce.Emscripten.clang"
  },
  "schemaVersion": "3.0.23",
  "updatedAt": "2020-05-24T02:38:20.034Z",
  "networkType": "ethereum",
  "devdoc": {
    "methods": {}
  },
  "userdoc": {
    "methods": {}
  }
}